:020000040800F2
:10000000682500207522000811030008130300086A
:10001000170300081B0300081F030008000000006E
:1000200000000000000000000000000023030008A2
:10003000250300080000000027030008290300082A
:100040008F2200088F2200088F2200088F220008CC
:100050008F2200088F2200088F2200088F220008BC
:100060008F2200088F2200088F2200088F220008AC
:100070008F2200088F2200088F2200088F2200089C
:100080008F2200088F2200088F2200088F2200088C
:100090008F2200088F2200088F2200088F2200087C
:1000A0008F2200088F2200088F2200088F2200086C
:1000B000CD060008230800088F2200088F220008C0
:1000C0008F2200088F2200088F2200088F2200084C
:1000D0008F220008EB2100088F2200088F220008E1
:1000E0008F2200088F2200088F2200088F2200082C
:1000F0008F2200088F2200088F2200088F2200081C
:100100008F2200088F2200088F2200088F2200080B
:100110008F2200088F2200088F2200088F220008FB
:100120008F2200088F2200088F2200088F220008EB
:1001300000F002F800F06AF80AA090E8000C82448F
:100140008344AAF10107DA4501D100F05FF8AFF26C
:10015000090EBAE80F0013F0010F18BFFB1A43F0A5
:10016000010318477C8000009C8000000A444FF087
:10017000000C10F8013B13F0070408BF10F8014B06
:100180001D1108BF10F8015B641E05D010F8016B4B
:10019000641E01F8016BF9D113F0080F1EBF10F8AF
:1001A000014BAD1C0C1B09D16D1E58BF01F801CBD2
:1001B000FAD505E014F8016B01F8016B6D1EF9D555
:1001C0009142D6D37047000000230024002500266A
:1001D000103A28BF78C1FBD8520728BF30C148BFAA
:1001E0000B607047662907F08A82642904F0A883AF
:1001F000002070471FB504F0B1FF0400002000216B
:1002000006F0D6F8E0601FBD10B510BD05F0A6F8E9
:100210001146FFF7EFFF00F009F805F0C4F803B44A
:10022000FFF7F2FF03BC01F085FF00004FF4C86048
:100230002B49088001222B492B4800F08DFC2948CE
:1002400000882A49086001F005FF01F06DFF0021D8
:100250002348008800F05AF90A2141F2873000F063
:10026000FFF9234801F027F91823224A224923489D
:1002700000F028FC00F08AFB01F05BFD01F05AFE63
:100280001F48204908601649088800EBD0714910C2
:1002900001F596711C4A116021E0144800881B4941
:1002A00008800F48008807F097F805461548016850
:1002B000284607F0D9F8044607F03AF812490860D2
:1002C00007480088401E81B24FF0804003F0AAFC2E
:1002D00001F0E7F801F05EFE044601F0FCF8DCE70F
:1002E00000000020320000200000070884000020E9
:1002F00094000020A40200204C2401400800024089
:10030000D7A3303F100000204C0000202C0000201C
:10031000704700BFFEE700BFFEE700BFFEE700BF7B
:10032000FEE7704770477047704700000CB500202B
:10033000019000906C48006840F480306A49086081
:1003400000BF6948006800F4003000900198401C2C
:100350000190009818B90198B0F5A06FF1D16248EA
:10036000006800F4003010B10120009001E000208E
:1003700000900098012843D15C48006840F01000CC
:100380005A4908600846006820F0030008600846E3
:10039000006840F0020008605348406852494860D5
:1003A0000846406848600846406840F480604860FD
:1003B0000846406820F47C1048600846406840F4D5
:1003C000E81048600846006840F08070086000BF90
:1003D0004548006800F000700028F9D042484068A5
:1003E00020F00300404948600846406840F00200A1
:1003F000486000BF3C48406800F00C000828F9D174
:100400000CBD10B5FFF792FF10BD10B5364800685F
:1004100040F001003449086008464068344908400B
:100420003149486008460068324908402E49086052
:100430000846006820F4802008600846406820F4E0
:10044000FE0048604FF41F008860FFF7DAFF4FF0AE
:1004500000602949086010BD10B50021002000226D
:10046000214B5B6803F00C0121B1042906D0082957
:1004700028D107E0214B224C236027E01F4B204C62
:10048000236023E0184B5B6803F47010164B5B6825
:1004900003F48032022303EB904022B9194B43430B
:1004A000174C23600DE0104B5B6803F4003323B15D
:1004B000144B4343124C236003E0104B4343104C56
:1004C000236003E00D4B0E4C236000BF00BF064BC2
:1004D0005B68C3F303130C4CE15C094B1B68CB4016
:1004E000074C236010BD00000010024000200240B5
:1004F0000000FFF8FFFFF6FE08ED00E000127A00B2
:100500003800002000093D003C00002030B589B0D3
:1005100005460C460121084602F063FA0121052038
:1005200002F052FA18208DF823000620ADF82000C2
:1005300003208DF8220008A9604801F089FF0020FF
:10054000ADF81A00ADF81600ADF81850ADF814402B
:1005500005A94FF0804002F073FD6020ADF8040063
:100560000120ADF806000020ADF80C0001A94FF005
:10057000804002F0A2FD0821C80603F0EDF96020DA
:10058000ADF804000120ADF806000020ADF80C0025
:1005900001A94FF0804002F0D2FD0821C80603F007
:1005A000E4F901A94FF0804002F016FE0821C806C8
:1005B00003F0E8F901221146900703F0B8F81C2077
:1005C0008DF8000000208DF801008DF80200012058
:1005D0008DF80300684601F072FE0121880703F0E0
:1005E0008BF809B030BD30B589B005460C46012105
:1005F000042002F0F6F90121092002F0E5F91820A3
:100600008DF823004020ADF8200003208DF8220053
:1006100008A92B4801F01CFF0020ADF81A00ADF826
:100620001600ADF81850ADF8144005A9254802F0A1
:1006300007FD6020ADF804000120ADF806000020A1
:10064000ADF80C0001A91F4802F037FD08211D4834
:1006500003F082F901211B4803F04EF809B030BDC8
:100660007FB505460C460121022002F0BAF9ADF82B
:100670000850ADF804400020ADF80A00ADF80600BF
:1006800001A9114802F0DCFC012211460E4803F0DA
:100690004EF81D208DF8000001208DF8010000208B
:1006A0008DF8020001208DF80300684601F007FE76
:1006B0000121054803F020F87FBD0000000801403B
:1006C000000C0140000800400004004010B501216A
:1006D000880703F0DAFA01280BD1064800884FF0AA
:1006E000804188870348008808870121880703F034
:1006F000DDFA10BD4C0000202DE9F04106460C4605
:10070000002700250AE036F8150006F065FE804651
:10071000394606F0A9FC0746681C85B2A542F2DB03
:10072000204606F059FE80464146384606F00AFD4E
:1007300007463846BDE8F0812DE9FF5F81468A46CD
:100740004FF0000B0020029000240CE059F8241018
:1007500059F8240006F088FE0390DDE9020106F056
:1007600083FC0290641C5445F0DB504606F034FED6
:1007700001460090029806F0E5FC019006F048FC66
:10078000074605F0EFFD054605F028FE834658466E
:1007900004B0BDE8F09FF0B503460C4616460021B4
:1007A0001AE0002212E033F81270501C33F81000E7
:1007B000874209DD33F81250501C33F8100023F83B
:1007C0001200501C23F81050501C82B2601A401EB8
:1007D0009042E8DC481C81B2A142E2DB7000A042FA
:1007E00011DA3146002504E033F811000544481CB5
:1007F00081B2A01B8842F7DC022000FB1640B5FB4B
:10080000F0F080B2F0BD0021002504E033F81100C3
:100810000544481C81B2A142F8DBB5FBF4F080B27C
:10082000F0E710B58CB001214F4803F02EFA0128F3
:100830007DD10020089009900A900B9004900590BB
:10084000069007900090019002900390474800782E
:1008500000287AD000241AE004EB4400444931F81F
:10086000100008A921F8140004EB4400404901EBF2
:100870004000408804A921F8140004EB44003C49DE
:1008800001EB400080882DF81400601CC4B2082CD5
:10089000E2DB0222082108A8FFF77DFF3549364A2E
:1008A000128821F812000222082104A8FFF773FF22
:1008B0003249314A128821F8120002220821684682
:1008C000FFF769FF2E492C4A128821F812000222F4
:1008D00008212848FFF75FFF2649274A128821F898
:1008E0001200022208212548FFF755FF2349224A1A
:1008F000128821F81200022208212148FFF74BFF3D
:100900001F491D4A128821F812001A491A4A1288F2
:1009100031F8120006F060FD1A49174A128841F8B2
:1009200022001649144A128831F8120001E018E03A
:100930000BE006F051FD14490F4A128841F82200DD
:100940000D480088401C0C4908800B480088FF288F
:1009500002DD0020084908800121034803F0A6F9C0
:1009600000BF0CB010BD7047000400405C000020C8
:10097000A4020020D40200205E000020D404002045
:10098000D4060020D4080020D40C002000B587B085
:1009900001214FF4067002F017F84FF4004001F007
:1009A00077FF0320ADF8040000208DF8070001A9AF
:1009B000414801F04DFD0220ADF8040000208DF803
:1009C000070001A93D4801F043FD3D4803F072F9DD
:1009D0000020029001208DF80C008DF80D004FF4DE
:1009E000602004900020059003208DF8180002A9D3
:1009F000334803F086F9002301220921304803F02F
:100A000018FA012302220A212D4803F012FA0123C9
:100A100003220B212A4803F00CFA0121284803F095
:100A20009CF90121264803F0A3F9254803F0B7F902
:100A300000BF234803F0B8F90028FAD1204803F09A
:100A4000BDF900BF1E4803F0BEF90028FAD101210C
:100A50001B4803F0C2F907B000BD10B504460023DF
:100A600001222146164803F0E4F90121144803F05D
:100A7000B4F900BF0221124803F020FB0028F9D08E
:100A80000F4803F03DFA10BD2DE9F04107460C4632
:100A90000025002608E03846FFF7DFFF0544052063
:100AA00001F015FB701CC6B2A642F4DBB5FBF4F0F6
:100AB00080B2BDE8F081000000100140000C014050
:100AC000002401402DE9F04107460D4616461C461C
:100AD0000121084601F06BFF384603F013FB104874
:100AE000048010480560466000200E498860084672
:100AF000C460002008618020486140008861800057
:100B0000C86120200862C00148620020886238461F
:100B100003F09AFB0121044803F0C1FBBDE8F0811A
:100B200060000020D4100020080002400146088820
:100B300070472DE9F04105460E461746002407E0B0
:100B400036F81410284603F06EFDAD1C601C84B20C
:100B5000BC42F5DBBDE8F08130B503460C461546D6
:100B6000002207E01846FFF7E1FF24F812009B1C63
:100B7000501C82B2AA42F5DB30BD2DE9F05F804601
:100B80008A461746B8F1006F02D33748804501D333
:100B9000BDE8F09F03F0FFFBA8F1006B4FEADB25F7
:100BA000CBF34909C9F58064A74200DC3C464DE01F
:100BB0004FF0006101EBC5204A142C49FFF7CCFF30
:100BC00000260BE009EB0600284931F810004FF62B
:100BD000FF71884200D003E0701C86B2A642F1DBB0
:100BE00000BFA6421BDA4FF0006101EBC52003F005
:100BF00017FC002608E03AF8160006EB09011B4A2C
:100C000022F81100701C86B2A642F4DB4FF000619E
:100C100001EBC5204A141549FFF78BFF04E022467B
:100C200051464046FFF785FFA74200D10FE06D1CFB
:100C30004FF000090AEB440AA044381B87B2B7F50D
:100C4000806F02DD4FF4806400E03C46B0E700BFF7
:100C500003F0ADFB00BF9BE713B50446012201A9D9
:100C60002046FFF78AFF1CBD000008080011002085
:100C70000FB41E98401C10B9012004B0704700202A
:100C8000FBE71FB504460A21A06F092819DAA06FF7
:100C9000401CA0670198A26F02EB420244F82200B8
:100CA0000398A26F02EB420204EB8202906002986A
:100CB000A26F02EB420204EB82025060012004B0FA
:100CC00010BD0020FBE730B59BB004460D466C22FA
:100CD00004F11001684603F033FF94E80F00FFF7BA
:100CE000C7FFC0B9A06F00EB400054F82000286097
:100CF000A06F00EB400004EB800040686860A16FCB
:100D0000481EA06701EB410004EB80008068A860EA
:100D100001201BB030BD0020FBE700002DE9F047AB
:100D200081460C46FE4800688068FD4909684968AC
:100D3000084448451FD1FB48007804280BD120689F
:100D400006F066F90746F84AF84B05F079FB0546C8
:100D500005F044FB2060F348007803280BD120689D
:100D600006F056F90546F04AF04B06F067F80746DC
:100D700005F034FB2060BDE8F0870146E8480068D4
:100D80008068081A704710B5002300BF04E011F80E
:100D9000014B00F8014B5B1C9342F8DB10BD014690
:100DA000DF48006880680A1A002A03DD072A01DA92
:100DB000012070470020FCE70FB42DE9F04389B013
:100DC00005460026B146142103A803F00DFF0020BC
:100DD0000090019002902846FFF7E1FF20B909B08A
:100DE000BDE8F0035DF814FB12A80890D0A111989B
:100DF00003F069FE0446002C3FD01198201AC2B2BD
:100E000003A81199FFF7BFFF641C2078642802D063
:100E1000662822D108E0089840C808903246C5A14B
:100E2000684603F079FD19E00898C01D20F007001E
:100E30000890D0E90021089F08371046089705F070
:100E4000CDFA8146484606F0E3F807463A460B4697
:100E5000B9A1684603F060FD00E000BF00BF69462D
:100E600003A803F061FE2846FFF787FFC7B203AA75
:100E700039460A2000F0CFFE08E02846FFF77DFF44
:100E8000C7B239460A20119A00F0C5FE002008902A
:100E900000BFA4E770B505460C46A148006880680D
:100EA0009F49096849680844A84214D19D480078C0
:100EB000052810D17CB19A4800680EC8A048FFF7F9
:100EC000E0FEA04804600020954909688860012080
:100ED00093490968486070BD2DE9F04781460C468A
:100EE0008F48006880688E49096849680844484509
:100EF00029D18C480078042810D1012292499348C6
:100F0000FFF73BFE206805F00CFD0746864A874B3D
:100F100005F094FF054605F0A7FC206081480078A5
:100F2000032810D1012288498848FFF726FE20684F
:100F300005F0F7FC05467C4A7C4B05F081FA074634
:100F400005F092FC2060BDE8F08770B505460C46C0
:100F5000072C00DD07247EA22146284600F05BFE18
:100F600070BD2DE9F04F87B005468A4616461F46EC
:100F700000243146284606F043FB8046002106F057
:100F8000A3F951D03146284606F03AFB8146514636
:100F9000384606F03FFB8346494606F0D3F80690F4
:100FA0002846069906F060FA8146514606F028FB6D
:100FB00005903146284606F02DFB834606F0B8F929
:100FC000B0F1000901DB484601E0C9F10000401C16
:100FD00000F0FF08002424E0204606F0E5F9294649
:100FE000019006F041F80290069906F03DFA83461A
:100FF000059906F039F8814606F0B6F9C0B20490BA
:10100000204606F0D1F98346294606F02DF88146A0
:1010100006F0AAF9C0B201220390049900F01CFD69
:10102000641C4445D8DB2AE0002416E0204606F084
:10103000BBF95146069006F017F8834606F094F97E
:1010400000F0FF08284606F08FF900F0FF090122A2
:101050004146484600F000FD641C5146384606F003
:10106000D9FA83464FF07E5105F0FEFF80462046B8
:1010700006F09AF98146414606F0C2F9D6D307B088
:10108000BDE8F08F10B50446324800F032FF254924
:1010900008700846007802282BD121480068406873
:1010A000801C1F4909684860062C19DD1C4800682F
:1010B000406806286DDD062019490968486018480F
:1010C00000688068401C16490968886014480068F8
:1010D0008168A01F81425CDD11490968886058E081
:1010E0000F4800684068A04253DD0D480068446026
:1010F0004FE00C480078012839D109480068406861
:10110000801E074909684860054800684068022851
:101110003FDA0220024909684860014800681BE084
:1011200074000020640000207B14AE47E17A843F05
:101130002500000025640000252E32660000000016
:1011400030190020780000202C0000200000070843
:101150003E000000001900208068002819DDFE48CC
:1011600000688068401EFC490968886011E0FB48FF
:10117000007806280DD1FA480068406848B1F84860
:1011800000684068F6490860F3480168F548FFF7D1
:101190009AFD10BD2DE9F047054600BF00BF284667
:1011A000FFF770FFEE490968086803F09EFC0446EB
:1011B000601E00EB40007F21A1EB400606EBD671DC
:1011C000481006F0F1F88046E749404606F022FA5A
:1011D0000646E64B324619460020FFF7C2FE40465F
:1011E00006F0C2F8C6B2DE48006800210268304648
:1011F00000F011FD04EB4401480006F0D5F88146EB
:10120000414605F031FF0746D74905F02DFF064658
:10121000D64B4FF086421946FFF7A3FED44B4FF052
:10122000824200211046FFF79CFECB4800680179FE
:101230000020FFF78AFEBDE8F0872DE9F84F0C206B
:10124000FFF7A8FFCBA10220FFF7B6FDCD49022092
:10125000FFF720FECC48006806F0A6F8CB49CC4A40
:101260000090128831F8120005F072FB8046C94ADE
:10127000C94B05F0E3FD064605F0B0F8834600993A
:1012800005F060FF824605F0C3FE044622460B4689
:10129000C2A10420FFF790FDBB490420FFF71CFE0C
:1012A000C1490420FFF7F6FDC049B94A128831F858
:1012B000120006F091F88146BD4905F043FF06464D
:1012C000BC480168304606F0CFF80546BA4906F03A
:1012D000CBF8044605F09CFE07463A460B46B7A1FC
:1012E0000620FFF769FDB3490620FFF717FDB64852
:1012F000A749098830F81120B4A10A20FFF75CFD46
:10130000B548006805F084FE044622460B46B3A1AA
:101310000820FFF751FDB0490820FFF7FFFCAE4859
:10132000006805F075FE0446B04AB14B05F05EFC5E
:1013300002D2B048A8490860A748006805F068FED6
:101340000446AD4AAD4B05F017FB02D2AC48A249AA
:101350000860BDE8F88F10B50220FFF71BFFA94811
:10136000A9A102680220FFF727FDA6490220FFF786
:10137000B3FD10BD2DE9F04781460C467648006864
:101380008068754909684968084448451FD1734811
:10139000007804280BD1206805F03AFE0746964AEB
:1013A000964B05F04DF8054605F018F820606B489F
:1013B000007803280BD1206805F02AFE05468E4AE6
:1013C0008E4B05F03BFD074605F008F82060BDE8B0
:1013D000F0872DE9F84F0620FFF7DCFE8D48006806
:1013E00005F016FE044622460B468BA10220FFF7AD
:1013F000E3FC88490220FFF7BDFF6348006805F061
:10140000D3FF6249624A0090128831F8120005F059
:101410009FFA80465F4A604B05F010FD064604F0D7
:10142000DDFF8346009905F08DFE824605F0F0FD54
:10143000044622460B4659A10420FFF7BDFC534841
:101440005349098830F8112076A10620FFF7B4FC33
:10145000BDE8F88F404A126892683F4B1B685B6892
:101460001A4482420DD13D4A1278042A02D10A68F8
:1014700014320A60394A1278032A02D10A68143AEF
:101480000A60704710B50120FFF784FE674868A125
:1014900002680120FFF790FC64490120FFF7DAFFA2
:1014A00010BD10B500F0D1FA2D4909688868804751
:1014B00000F004FB10BD10B5044600F03AFC00F04B
:1014C000A4FA00205C49C8628862401E25498867EA
:1014D0002348046010BD10B504462146564800F06C
:1014E000E9FC10BD2DE9F05F05460C4616461F4687
:1014F000204605F071FF8046A81905F055FF81468A
:10150000204605F069FF8246284605F065FF8346C0
:1015100043464A465146FFF724FDE01905F044FFD3
:101520008046284605F058FF8146204605F054FFC6
:101530008246284605F050FF834643464A465146B8
:10154000FFF70FFDE01905F02FFF8046A81905F001
:101550002BFF8146E01971E0740000206400002038
:1015600078000020301900200000C04000007042C8
:1015700000007C42656666696369656E63793A302E
:101580002E393600A000002084000020D404002062
:101590005E0000208A8EE4F21FFE9D4049696E289D
:1015A00041293A2566000000AC000020D406002046
:1015B00000F07F45900000200000304155696E2802
:1015C00076293A2566000000D4020020556F757414
:1015D0002876293A256400001000002050574D5FFE
:1015E000647574793A25662000000000AE47E17A00
:1015F00014AEEF3FA4707D3F9A9999999999B93F9C
:10160000CDCCCC3D4C00002073696E5F6D61783AA3
:101610002564000034000020495F7365743A256634
:101620000000000049696E3A25640000280000208F
:10163000487A3A25640000000019002005F0B4FE45
:101640008246284605F0C8FE834643464A46514630
:10165000FFF787FCE01905F0A7FE8046A81905F002
:10166000A3FE8146204605F0B7FE8246A81905F084
:101670009BFE834643464A465146FFF772FCBDE84F
:10168000F09F2DE9F74F8EB00C46914600200C904C
:101690000C9061E00C9805F0BBFC0746794A7A4B48
:1016A00005F0A6F90022794BCDE9000104F084FF92
:1016B000054604F0B9FDCDE90401484605F0A8FC53
:1016C000CDE90201DDE9042305F092F9CDE9080135
:1016D000204605F09DFCCDE90601DDE9082304F074
:1016E000AFFE824605F0F0F8C0B20B900E9805F000
:1016F0008FFCCDE906010C9805F08AFC8246614A10
:10170000614B05F075F907460022604B04F054FF69
:10171000CDE9000104F0D6FDCDE90201484605F00F
:1017200077FC0546DDE9022305F062F9CDE9040105
:10173000DDE9062304F084FECDE9080105F0C4F8D4
:10174000C0B201220A900B9900F086F94FF07E5149
:101750000C9805F089FC0C904D490C9805F050FE52
:1017600098D311B0BDE8F08F2DE9F04781460C46C3
:1017700048480068806847490968496808444845FE
:101780001FD14548007804280BD1206805F0C9F81E
:101790000746424A424B04F053FE054605F064F802
:1017A00020603D48007803280BD1206805F0B9F887
:1017B00005463A4A3A4B05F041FB074605F054F816
:1017C0002060BDE8F0872DE9F04781460C4631489E
:1017D000006880682F4909684968084448451FD156
:1017E0002D48007804280BD1206805F09AF80746A8
:1017F0002A4A2B4B04F024FE054605F035F82060FC
:101800002548007803280BD1206805F08AF80546A2
:10181000224A234B05F012FB074605F025F820600D
:10182000BDE8F0872DE9F04781460C46194800686D
:101830008068184909684968084448451FD1164816
:10184000007804280BD1206805F0E2FB0746134A14
:10185000144B04F0F5FD054604F0C0FD20600E4871
:10186000007803280BD1206805F0D2FB05460B4A0F
:101870000C4B05F0E3FA074604F0B0FD2060BDE82C
:10188000F08700001F85EB51B81E094000806640BC
:101890000000B44374000020640000207B14AE47B5
:1018A000E17A843FE17A643F70B504460E462EB17A
:1018B0004FF48061FD4800F078FE04E04FF4806151
:1018C000FA4800F074FE4FF40071F84800F06FFE23
:1018D00000251BE04FF40051F44800F068FE04F0CE
:1018E000800028B14FF48051F04800F05EFE04E023
:1018F0004FF48051ED4800F05AFE4FF40051EB4890
:1019000000F053FE6006040E681CC5B2082DE1DB32
:101910004FF40071E54800F048FE4FF48061E34861
:1019200000F043FE70BD70B504460E462EB14FF474
:101930008061DE4800F039FE04E04FF48061DB484E
:1019400000F035FE4FF40071D84800F030FE00255D
:101950001BE04FF40051D54800F029FE04F0800050
:1019600028B14FF48051D14800F021FE04E04FF43B
:101970008051CE4800F019FE4FF40051CB4800F0E2
:1019800014FE6006040E681CC5B2082DE1DB4FF49E
:101990000071C64800F009FE4FF48061C34800F0B2
:1019A00004FE70BD70B504460D4605F1B001C8B225
:1019B0000021FFF779FF102141EA14100021FFF701
:1019C00073FF04F00F0141F001000021FFF76CFFED
:1019D00070BD10B500218D20FFF766FF0021142097
:1019E000FFF762FF0021AF20FFF75EFF10BD10B5CB
:1019F00000218D20FFF758FF00211020FFF754FF32
:101A00000021AE20FFF750FF10BD70B5002419E093
:101A100004F1B001C8B20021FFF746FF00210846DB
:101A2000FFF742FF00211020FFF73EFF002505E0F1
:101A300001210020FFF738FF681CC5B2802DF7DBBD
:101A4000601CC4B2082CE3DB70BD10B54FF480619C
:101A5000974803F0A7F810BDF0B5144600267F287C
:101A600001DC3F2900DDF0BD0B46CF1701EB5777B6
:101A7000FF10C7F10707FAB2CF1701EB5777FF1036
:101A8000A1EBC707FDB2C5F107070123BB40DEB2DA
:101A90004CB1874B03EBC0039B5C3343844F07EB94
:101AA000C007BB5408E0824B03EBC0039B5CB3430D
:101AB0007F4F07EBC007BB5400BFD4E770B50024CD
:101AC0001CE004F1B001C8B20021FFF7EDFE0021D7
:101AD0000846FFF7E9FE00211020FFF7E5FE00258C
:101AE00008E0734901EBC501085D0121FFF7DCFE49
:101AF000681CC5B2802DF4DB601CC4B2082CE0DB8E
:101B000070BD2DE9F04106460D46904600270024A1
:101B1000A8F12000C7B27F2E02DD0026A81CC5B2A6
:101B2000072D00DD072529463046FFF73BFF00243F
:101B30000AE004EB07105F49085C31195C4A02EBCC
:101B4000C1014855601CC4B2082CF2DB681CC1B24C
:101B50003046FFF727FF00240CE004EB07100830A5
:101B60005449095C3019524A02EBC002681C1154F6
:101B7000601CC4B2082CF0DBBDE8F08110B5024651
:101B8000012000E050430B1EA1F10104E1B2F9D1A4
:101B900010BD2DE9FF5F074691461D460E9E4FF092
:101BA000000A002433E0281B401EC1B20A20FFF7C0
:101BB000E5FFB9FBF0F00A21B0FBF1F201FB1208DE
:101BC000BAF1000F13D1681EA04210DDB8F1000F6A
:101BD0000BD1B34606EBDB71491001FB0471C8B2AF
:101BE00020220199FFF78DFF0FE04FF0010AB34665
:101BF00006EBDB71491001FB0471C8B208F130013A
:101C0000CAB20199FFF77DFF00BF601CC4B2AC42AD
:101C1000C9DBBDE8FF9F2DE9F04104460F4615469C
:101C200000260DE0AA5D39462046FFF76AFFE01D59
:101C3000C4B2782C02DD0024781CC7B2701CC6B276
:101C4000A85D0028EED1BDE8F0812DE9F041804685
:101C50000E461546002731464046FFF7A3FE0024F6
:101C60000AE0154A02EB8511085D0121FFF71CFE11
:101C7000781CC7B2601CC4B2102CF2DB701CC1B25D
:101C80004046FFF78FFE00240CE06900491C0A4A19
:101C900002EB4111085D0121FFF706FE781CC7B277
:101CA000601CC4B2102CF0DBBDE8F08100200140C4
:101CB0003C1A00201A7A0008C40000202DE9F05FC9
:101CC00006460F4690461C46DDF828A04FF0000B54
:101CD000E11704EB5171C910A4EBC10131B92046E1
:101CE000E11704EB5171C1F3C70506E02046E11787
:101CF00004EB5171C910491CCDB23D4615E029468F
:101D00003046FFF74FFEB1460BE059460BF1010B91
:101D10001AF801000121FFF7C7FD09F1010000F0E9
:101D2000FF09C145F1DB681CC5B2A542E7DBBDE890
:101D3000F09F08B50121080200F046FE4FF47850EC
:101D4000ADF8000010208DF8030003208DF802008C
:101D500069464C4800F07CFB4FF47851494800F04C
:101D600024FC4FF40061474800F01FFC642000F0A1
:101D7000AEF94FF40061434800F019FCC82000F0B0
:101D8000A6F94FF400613F4800F00FFC0021AE209F
:101D9000FFF78AFD00210846FFF786FD002110208D
:101DA000FFF782FD00214020FFF77EFD002181200A
:101DB000FFF77AFD0021CF20FFF776FD0021A1205B
:101DC000FFF772FD0021C820FFF76EFD0021A6205D
:101DD000FFF76AFD0021A820FFF766FD00213F20E4
:101DE000FFF762FD0021D320FFF75EFD00210846CA
:101DF000FFF75AFD0021D520FFF756FD0021802076
:101E0000FFF752FD0021D920FFF74EFD0021F12000
:101E1000FFF74AFD0021DA20FFF746FD00211220DE
:101E2000FFF742FD0021DB20FFF73EFD00214020AF
:101E3000FFF73AFD00212020FFF736FD00210220A8
:101E4000FFF732FD00218D20FFF72EFD0021142029
:101E5000FFF72AFD0021A420FFF726FD0021A62080
:101E6000FFF722FD0021AF20FFF71EFD0021AF206C
:101E7000FFF71AFDFFF7C9FD00210846FFF792FDA5
:101E800008BD0000002001400FB40A21DDE90A026C
:101E9000904202D1012004B070470A98401C90FB88
:101EA000F1F201FB12000B9A904201D10020F2E7FF
:101EB0000220F0E770B588B004460D460A262022BD
:101EC00004F11001684602F03BFE94E80F00FFF7B2
:101ED000DBFF10B9002008B070BDA06A44F82050A4
:101EE000A06A401C90FBF6F106FB1100A0620120E5
:101EF000F1E770B588B0044600250026202204F1E1
:101F00001001684602F01CFE94E80F00FFF7BCFFCA
:101F1000012802D1002008B070BD0A25E06A54F8FB
:101F20002060E06A401C90FBF5F105FB1100E062C7
:101F30003046F0E708B501214FF4E87000F044FDA9
:101F40004FF47040ADF8000048208DF8030069465A
:101F50003C4800F07DFA8020ADF8000048208DF864
:101F600003006946384800F073FA0220ADF800001B
:101F700048208DF803006946344800F069FA802053
:101F8000ADF8000010208DF803006946304800F0DD
:101F90005FFA08BD10B54FF480512A4800F0EBFA03
:101FA000D8B10221294800F0E6FAB0B180212648D4
:101FB00000F0E1FA88B14FF40051224800F0DBFA5A
:101FC00058B14FF480411F4800F0D5FA28B14FF4C2
:101FD00000411C4800F0CFFA80BB3C2000F077F8AD
:101FE0004FF48051174800F0C6FA08B9032010BD1D
:101FF0000221164800F0BFFA08B90220F7E7802155
:10200000114800F0B8FA08B90420F0E74FF4005185
:102010000C4800F0B0FA08B90520E8E74FF4804119
:10202000084800F0A8FA08B90120E0E74FF40041A1
:10203000044800F0A0FA08B90620D8E7FFE700201E
:10204000D5E70000001C01400018014000200140BD
:102050000010014010B56FF0040000F07AF92E482E
:1020600000682E49B0FBF1F02D4908700846007851
:1020700000EB4001C1EBC0104FF6FF7101EAC00058
:102080002849088010BD0146254A12784A434FF07E
:10209000E0235A6100229A611A46126942F0010255
:1020A0001A6100BF4FF0E022106900F001021AB17E
:1020B00000F48032002AF5D04FF0E022126922F0BD
:1020C00001024FF0E0231A6100229A617047014635
:1020D000144A12884A434FF0E0235A6100229A6161
:1020E0001A46126942F001021A6100BF4FF0E02265
:1020F000106900F001021AB100F48032002AF5D014
:102100004FF0E022126922F001024FF0E0231A6141
:1021100000229A61704700003800002000127A0007
:10212000840200208602002010B54FF4A06000F069
:10213000C1F810BD014600BF704700BF494A128870
:1021400002F04002002AF9D0C2B2464B1B1D1A8091
:10215000704710B586B00446012144F2050000F036
:1021600033FC4FF40070ADF8140003208DF8160016
:1021700018208DF8170005A93B4800F069F94FF4C5
:102180008060ADF8140004208DF8170005A93648CA
:1021900000F05EF925208DF8000003208DF8010085
:1021A0008DF8020001208DF80300684600F087F8E2
:1021B00001940020ADF80800ADF80A00ADF80C005D
:1021C000ADF810000C20ADF80E0001A9254800F074
:1021D000A2FC012240F22551224800F034FD0121E9
:1021E000204800F024FD06B010BD10B540F2255186
:1021F0001C4800F00DFE10B31A4800F089FDC4B26F
:102200001A48008800F40040C8B91848008800F453
:10221000804060B10A2C03D000201449088020E0DF
:102220001248008840F400401049088019E00D2C45
:1022300006D10E48008840F480400C49088010E028
:102240000A480088C0F30D0009490C54074800886B
:10225000401C0649088008460088C72801DD002088
:10226000088010BD00380140000801408C020020A9
:102270003C1E00200948804709480047FEE7FEE76A
:10228000FEE7FEE7FEE7FEE7FEE7FEE7FEE7FEE726
:1022900004480549054A064B704700000B04000836
:1022A00031010008681F00206825002068210020F7
:1022B0006821002031490143314A1160704770B5EF
:1022C000002100230F22C47804B32D4C246804F4A9
:1022D000E064C4F5E064210AC1F10403CA40447813
:1022E00004FA03F18478144021430901254C06784F
:1022F000A155047804F01F050124AC4005786D1148
:10230000AD0005F1E025C5F8004109E0047804F0CE
:102310001F050124AC401C4D0678761145F8264077
:1023200070BD1A4A0A400243154B1B1F1A607047C2
:1023300039B1134A121D12680243114B1B1D1A605A
:1023400006E00F4A121D126882430D4B1B1D1A60D6
:102350007047042808D14FF0E021096941F00401D9
:102360004FF0E022116107E04FF0E021096921F010
:1023700004014FF0E0221161704700000000FA05EF
:102380000CED00E000E400E080E100E080FFFF1FD2
:1023900010B50446CC48844208D10121042000F045
:1023A0002DFB0021042000F029FB46E0C7488442B1
:1023B00008D10121082000F021FB0021082000F0B5
:1023C0001DFB3AE0C248844208D10121102000F0F0
:1023D00015FB0021102000F011FB2EE0BD488442C7
:1023E00008D10121202000F009FB0021202000F06D
:1023F00005FB22E0B848844208D10121402000F0CA
:10240000FDFA0021402000F0F9FA16E0B3488442BA
:1024100008D10121802000F0F1FA0021802000F095
:10242000EDFA0AE0AE48844207D10121801500F0A0
:10243000E5FA0021A01500F0E1FA10BD10B5012168
:10244000084600F0DBFA0021012000F0D7FA10BDA9
:102450002DE9F0410246002500260020002300243B
:10246000002791F803C00CF00F0591F803C00CF0A1
:10247000100CBCF1000F03D091F802C04CEA050526
:1024800091F800C0BCF1000F31D0146800202BE09F
:102490004FF0010C0CFA00F3B1F800C00CEA03068F
:1024A0009E4220D183004FF00F0C0CFA03F7BC437F
:1024B00005FA03FC4CEA040491F803C0BCF1280FB0
:1024C00006D14FF0010C0CFA00FCC2F814C00AE06F
:1024D00091F803C0BCF1480F05D14FF0010C0CFA84
:1024E00000FCC2F810C0401C0828D1D31460B1F819
:1024F00000C0BCF1FF0F34DD546800202EE000F175
:10250000080C4FF0010808FA0CF3B1F800C00CEA0F
:1025100003069E4221D183004FF00F0C0CFA03F703
:10252000BC4305FA03FC4CEA040491F803C0BCF177
:10253000280F05D100F1080C08FA0CF8C2F8148035
:1025400091F803C0BCF1480F07D100F1080C4FF01F
:10255000010808FA0CF8C2F81080401C0828CED3F5
:102560005460BDE8F0814FF6FF7101800221817057
:102570000421C17070470246002093680B400BB1E4
:10258000012000E0002070470146886880B2704753
:1025900002460020D3680B400BB1012000E0002070
:1025A00070470146C86880B2704701617047416159
:1025B00070470AB1016100E041617047C160704736
:1025C0004FF480320A43826181618261826982694B
:1025D000704702460020434B18684FF6807318403E
:1025E00040EA021008433F4B186070473E49C861FB
:1025F0007047F0B50A46002300240021002500F0B2
:102600000046B6F1004F02D1364EF16901E0354E79
:102610007168C0F3034583B200F44016B6F5401F5D
:1026200008D121F070612F4E766826F070662D4F2C
:102630007E6012E000F48016B6F5801F06D10326F6
:1026400006FA05F4A14341F0706106E0460D36013B
:1026500003FA06F6B14341F0706122B1460D36012E
:1026600003FA06F6314300F00046B6F1004F02D1FE
:102670001C4EF16101E01B4E7160F0BD30B50022CF
:102680008B071C0F0F2303FA04F2164B08338C1030
:1026900053F824309343134C08348D1044F82530FC
:1026A00023468C1053F824308C07240F00FA04F4CE
:1026B00023430C4C08348D1044F8253030BD0A49B2
:1026C000DC3108607047000000080140000C014048
:1026D000001001400014014000180140001C01409E
:1026E000002001400000014000002042DF48006857
:1026F00040F00100DD49086008464068DC490840B8
:10270000DA49486008460068DA490840D749086055
:102710000846006820F4802008600846406820F4DD
:10272000FE0048604FF41F0088607047CF49096879
:1027300021F48031CD4A11601146096821F48021CD
:102740001160B0F5803F03D0B0F5802F0ED106E0C8
:10275000C649096841F48031C44A116007E0C349A1
:10276000096841F4A021C14A116000E000BF00BF28
:10277000704710B501460022002300204A11012AAB
:1027800002D1BA4C236806E0022A02D1B74C236A70
:1027900001E0B64C636A01F01F02012494401C4022
:1027A0000CB1012000E0002010BD38B500200090E1
:1027B0000024002500BF3120FFF7DBFF054600980D
:1027C000401C00900098B0F5A06F01D0002DF2D011
:1027D0003120FFF7CEFF08B1012400E0002420469D
:1027E00038BD01460020A14A106820F0F80040EAF8
:1027F000C10010607047A049086070470246002081
:102800009A4B586820F47C1042EA01031843974B16
:102810005860704798490866704701460020934AFF
:10282000506820F003000843506070478F484068AC
:1028300000F00C007047014600208C4A506820F0E0
:10284000F00008435060704701460020874A5068F6
:1028500020F4E06008435060704701460020834A3E
:10286000506820F4605040EAC1005060704729B1C0
:102870007E4A527A02437D4B5A7204E07B4A527A76
:1028800082437A4B5A7270477B49D831086070474F
:1028900001460020754A506820F4404008435060CB
:1028A00070470021714A20321170704A82F820105E
:1028B000012802D004280AD104E001216B4A203209
:1028C000117005E00521694A2032117000E000BF57
:1028D00000BF70476949086070476449096A01434D
:1028E000624A11627047654944390860704730B5E3
:1028F00000210022002400235C4D6D6805F00C01CE
:1029000021B1042905D0082923D105E05C4D0560DB
:1029100022E05B4D05601FE0544D6D6805F47012B8
:10292000524D6D6805F48034022505EB92421CB9C6
:10293000544D554305600BE04C4D6D6805F4003572
:102940001DB1504D5543056002E04D4D55430560A6
:1029500002E04B4D056000BF00BF444D6D6805F0BF
:10296000F0010909484D6B5C0568DD4045603F4D4D
:102970006D6805F4E061090A434D6B5C4568DD4014
:1029800085603A4D6D6805F46051C90A3E4D6B5C37
:102990004568DD40C560354D6D6805F44041890BE3
:1029A0003A4D6B5CC568B5FBF3F5056130BD29B1E7
:1029B0002E4A526902432D4B5A6104E02B4A526958
:1029C00082432A4B5A61704729B1284A92690243CF
:1029D000264B9A6104E0254A92698243234B9A610F
:1029E000704729B1214AD2690243204BDA6104E0E1
:1029F0001E4AD26982431D4BDA61704729B11B4AD6
:102A0000D2680243194BDA6004E0184AD268824364
:102A1000164BDA60704729B1144A12690243134B0E
:102A20001A6104E0114A12698243104B1A6170471F
:102A300012494039086070470F49C86470470B4914
:102A4000C87170470948406A40F080700749486281
:102A5000704701460020054A92680A400AB10120E9
:102A600000E0002070470149887270470010024062
:102A70000000FFF8FFFFF6FE0000424280044242E1
:102A800000127A0000093D008E0200209E02002004
:102A900010B50446FB48844209D101218803FFF7A1
:102AA000ADFF00214FF48040FFF7A8FF32E0F64869
:102AB000844209D101214804FFF7ADFF00214FF402
:102AC0000030FFF7A8FF25E0F048844209D101213A
:102AD0008804FFF7A0FF00214FF48020FFF79BFF41
:102AE00018E0EB48844209D10121C804FFF793FFA5
:102AF00000214FF40020FFF78EFF0BE0E5488442F1
:102B000008D101210805FFF786FF00214FF480104E
:102B1000FFF781FF10BD2DE9F04786B005460E4650
:102B20000024A24600BFA1460027B08900B100BF23
:102B30002F462C8A4CF6FF700440F08804432C8208
:102B4000AC894EF6F3100440B0883189084371898E
:102B500008430443AC81AC8A4FF6FF400440B0897F
:102B60000443AC8201A8FFF7C2FEC648874202D1E7
:102B7000DDF810A001E0DDF80CA0A88900F4004009
:102B800040B10AEBCA0000EB0A1031684900B0FB03
:102B9000F1F807E00AEBCA0000EB0A10316889007F
:102BA000B0FBF1F86420B8FBF0F0040120096421C7
:102BB00001FB1089A88900F4004040B1322000EBED
:102BC000C900B0FBF1F000F00700044308E0322038
:102BD00000EB09106421B0FBF1F000F00F0004439A
:102BE0002C8106B0BDE8F0874FF41651016000213A
:102BF0008180C18001810C21418100218181704748
:102C000010B502460020108A4FF2FF0318400B88CF
:102C10004C8823438C882343CC8823431843108259
:102C200010BD0021018041808180C180704721B1A9
:102C3000828942F40052828104E082894DF6FF735A
:102C40001A4082817047F0B5034600240026002513
:102C5000002040F66A17B94200D100BF1846C1F300
:102C6000421401F01F06012707FA06F5012C01D1D5
:102C70000C3004E0022C01D1103000E014301AB105
:102C800007682F43076002E00768AF430760F0BDA5
:102C90001AB1838A0B43838202E0838A8B43838247
:102CA0007047028A4FF6F0731A400282028A0A4382
:102CB0000282704782894FF2FF731A4082818289B3
:102CC0000A438281704721B1828942F002028281E7
:102CD00004E082894FF6FD731A4082817047028AB0
:102CE0004FF6DF731A400282028A0A43028270475B
:102CF00021B1028A42F48042028204E0028A4BF649
:102D0000FF731A4002827047C1F308028280704745
:102D100001468888C0F308007047818941F00101AD
:102D200081817047028BD2B20283028B42EA012278
:102D300002837047028B02F47F420283028B0A43B4
:102D40000283704721B1828A42F02002828204E02D
:102D5000828A4FF6DF731A408282704721B1828ADD
:102D600042F01002828204E0828A4FF6EF731A402A
:102D70008282704721B1828A42F00802828204E096
:102D8000828A4FF6F7731A408282704721B1828996
:102D900042F40042828103E08289C2F30E02828102
:102DA000704721B1828A42F40062828204E0828A02
:102DB0004FF2FF731A4082827047828A4FF6FB738C
:102DC0001A408282828A0A438282704721B1828AB3
:102DD00042F00202828204E0828A4FF6FD731A40BA
:102DE0008282704702460020B1F5007F00D100BF0B
:102DF00013880B400BB1012000E00020704701F464
:102E00000072B2F5007F00D100BFCA430280704754
:102E100070B50246002400230025002040F66A1603
:102E2000B14200D100BFC1F3421501F01F030126DA
:102E300006FA03F3012D02D19689334006E0022DF4
:102E400002D1168A334001E0968A33400C120126E3
:102E500006FA04F41688344013B10CB1012000E0E6
:102E6000002070BD10B50022002340F66A14A14274
:102E700000D100BF0A1201249440A3B2DC430480B5
:102E800010BD0000003801400044004000480040F0
:102E9000004C00400050004010B50446FE488442FB
:102EA00008D10121C014FFF7A9FD0021E014FFF7AC
:102EB000A5FDC4E0B4F1804F08D101210846FFF719
:102EC000AAFD00210120FFF7A6FDB8E0F3488442E7
:102ED00008D101210220FFF79EFD00210220FFF70B
:102EE0009AFDACE0EE48844208D101210420FFF7AE
:102EF00092FD00210420FFF78EFDA0E0E948844206
:102F000008D101210820FFF786FD00210820FFF7E6
:102F100082FD94E0E448844208D101211020FFF7AB
:102F20007AFD00211020FFF776FD88E0DF4884421B
:102F300008D101212020FFF76EFD00212020FFF79E
:102F40006AFD7CE0DA48844208D101214014FFF791
:102F500055FD00216014FFF751FD70E0D548844213
:102F600009D10121C804FFF749FD00214FF40020D9
:102F7000FFF744FD63E0D048844209D101210805F0
:102F8000FFF73CFD00214FF48010FFF737FD56E0BE
:102F9000CA48844209D101214805FFF72FFD0021CD
:102FA0004FF40010FFF72AFD49E0C548844208D1DC
:102FB00001214020FFF72FFD00214020FFF72BFDCE
:102FC0003DE0C048844208D101218020FFF723FD65
:102FD00000218020FFF71FFD31E0BB48844208D16B
:102FE00001218015FFF717FD0021A015FFF713FD44
:102FF00025E0B648844209D101210804FFF7FEFC10
:1030000000214FF48030FFF7F9FC18E0B04884420B
:1030100009D101214804FFF7F1FC00214FF40030F1
:10302000FFF7ECFC0BE0AB48844208D10121880497
:10303000FFF7E4FC00214FF48020FFF7DFFC10BD18
:1030400000220288944B98420ED0994B98420BD0A4
:10305000B0F1804F08D0914B984205D0904B9842E8
:1030600002D0904B984204D14FF68F731A404B8890
:103070001A438D4B984207D08C4B984204D04FF6A0
:10308000FF431A40CB881A4302808B8883850B88C4
:103090000385814B98420BD0854B984208D08B4BCF
:1030A000984205D08A4B984202D08A4B984201D16F
:1030B0000B7A038601238382704770B500240022B7
:1030C0000023058C4FF6FE7635400584028C8388FC
:1030D000048B4FF68F752C40B51E2C400D882C4369
:1030E000751E2A400D892A434D882A436A4DA842FD
:1030F0000BD06F4DA84208D0744DA84205D0744D36
:10310000A84202D0734DA84213D14FF6F7752A405A
:103110004D892A434FF6FB752A408D882A434FF686
:10312000FF652B404FF6FF552B408D892B43CD89F2
:103130002B4383800483CD888586028470BD70B55F
:10314000002400220023058C4FF6EF7635400584DD
:10315000028C8388048B48F6FF752C404FF6FF45A0
:103160002C400D884FF6FF7606EA05252C434FF6D6
:10317000DF752A400D8906EA05152A434D8806EABF
:1031800005152A43444DA84202D0494DA8421DD1FD
:103190004FF67F752A404D894FF6FF7606EA0515F2
:1031A0002A434FF6BF752A408D8806EA05152A4343
:1031B0004FF6FF352B404FF2FF752B408D8906EA05
:1031C00085052B43CD8906EA85052B43838004833F
:1031D000CD880587028470BD70B5002400220023CD
:1031E000058C4FF6FF6635400584028C8388848BFE
:1031F0004FF68F752C404FF6FC752C400D882C43F4
:103200004FF6FF552A400D894FF6FF7606EA052551
:103210002A434D8806EA05252A431F4DA84202D0BD
:10322000234DA8421DD14FF2FF752A404D894FF61C
:10323000FF7606EA05252A434FF6FF352A408D889A
:1032400006EA05252A434EF6FF752B404DF6FF751D
:103250002B408D8906EA05152B43CD8906EA051515
:103260002B4383808483CD888587028470BD70B5AD
:10327000002200230024058C4EF6FF76354005849D
:10328000038C8488828B48F6FF752A404FF6FF45F1
:103290002A400D8820E00000002C0140000400407E
:1032A00000080040000C00400010004000140040E6
:1032B00000340140004C01400050014000540140E6
:1032C00000180040001C0040002000400040014069
:1032D00000440140004801404FF6FF7606EA05250C
:1032E0002A434DF6FF752B400D8906EA05352B4321
:1032F0004D8806EA05352B43FA4DA84202D0FA4D17
:10330000A84208D14BF6FF752C408D894FF6FF7609
:1033100006EA85152C4384808283CD88A0F840502E
:10332000038470BD828B4FF2FF331A408283828BFD
:103330004FF6FF7303EA01231A4382837047F0B507
:103340000C461546002200210026078C4EF6FF7C15
:1033500007EA0C070784828B018C4FF6FF7707EA98
:10336000043640F6FF473A404FF6FF7707EA052755
:103370003A434FF6FF7707EA03373A43D94FB8424B
:103380000ED0D94FB8420BD0B0F1804F08D0D74FF4
:10339000B84205D0D64FB84202D0D64FB84206D177
:1033A0004DF6FF77394046F48057394305E047F63C
:1033B000FF57394044F48057394382830184F0BD7C
:1033C000828B4FF6F3731A408283828B0A43828387
:1033D0007047F0B50C461546002200210026078CE8
:1033E0004FF6FF6C07EA0C070784828B018C4FF6BF
:1033F000FF7707EA04264FF60C773A404FF6FF773F
:1034000007EA03172F433A43B64FB8420ED0B64FE0
:10341000B8420BD0B0F1804F08D0B44FB84205D0BD
:10342000B34FB84202D0B34FB84206D14FF6FF5760
:10343000394046F48077394305E04FF2FF57394071
:1034400044F48077394382830184F0BD028B4FF2CC
:10345000FF331A400283028B4FF6FF7303EA012306
:103460001A4302837047F0B50C461546002200212E
:103470000026078C4FF6EF7C07EA0C070784028BC7
:10348000018C4FF6FF7707EA041640F6FF473A40F3
:103490004FF6FF7707EA03373A434FF6FF7707EA1D
:1034A00005273A438F4FB8420ED08F4FB8420BD00A
:1034B000B0F1804F08D08D4FB84205D08C4FB84244
:1034C00002D08C4FB84206D14FF6DF77394046F034
:1034D0001007394305E04FF65F77394044F0100795
:1034E000394302830184F0BD028B4FF6F3731A4017
:1034F0000283028B0A4302837047F0B50C461546DF
:1035000000220021068C4FF6FE773E400684028B97
:10351000018C4FF60C7632407E1C06EA03162E43D1
:103520003243704EB0420ED06F4EB0420BD0B0F16D
:10353000804F08D06D4EB04205D06D4EB04202D0E3
:103540006C4EB04206D14FF6FD76314044F0010694
:10355000314305E04FF6F576314044F00106314342
:1035600002830184F0BD70B505460C465D48854276
:103570000ED05D4885420BD0B5F1804F08D05B4836
:10358000854205D05A48854202D05A48854200D12A
:1035900000E000BF208850B92389A28861882846AE
:1035A000FFF7ABFFE1882846FFF79EFF25E0208864
:1035B00004280AD12389A28861882846FFF753FF8F
:1035C000E1882846FFF742FF17E0208808280AD143
:1035D0002389A28861882846FFF7FBFEE1882846F8
:1035E000FFF7EEFE09E02389A28861882846FFF7ED
:1035F000A6FEE1882846FFF795FE70BD2DE9F04153
:1036000005460C4600260127608808B9022600E01E
:103610000026A088012801D1022700E00127208888
:10362000A0B92389A28861882846FFF766FFE18850
:103630002846FFF759FF23893A4631462846FFF7C7
:1036400012FFE1882846FFF701FF13E02389A288D3
:1036500061882846FFF707FFE1882846FFF7F6FE56
:1036600023893A4631462846FFF747FFE188284636
:10367000FFF73AFFBDE8F0810A884B881A438B8830
:103680001A43CB881A430B891A434B891A438B89F7
:103690001A43A0F8442070474FF6FF718180002143
:1036A0000180C1804180017270470021018041800A
:1036B0008180C180018141818181C1817047002168
:1036C00001804180012181800021C18001817047FA
:1036D0000021018041808180C180018141818181FF
:1036E00070470000002C01400034014000040040FD
:1036F00000080040000C004021B1028842F00102A5
:10370000028004E002884FF6FE731A400280704780
:1037100031B1B0F8442042F40042A0F8442005E062
:10372000B0F84420C2F30E02A0F8442070471AB14A
:1037300083890B43838102E083898B4383817047B4
:103740008182704741EA0203A0F8483070471AB1FD
:1037500083890B43838102E083898B438381704794
:1037600001894FF6F8721140018170470A46002125
:1037700001894FF68F73194011430181704730B5AD
:1037800004460D4629462046FFF7F0FF208940F009
:103790000700208130BD2DE9F04104460D46164654
:1037A0001F46602D06D13B46012231462046FFF7D9
:1037B0005AFE05E03B46012231462046FFF79DFEBA
:1037C00029462046FFF7D2FF208940F007002081DC
:1037D000BDE8F08130B50C4600210189C9B24FF631
:1037E000FF7505EA0325154325432943018130BDB3
:1037F0002DE9F04105460E461746984600244346FB
:103800003A4631462846FFF7E5FF2C894FF6F87017
:10381000044044F007044FF68F70044044F07004F5
:103820002C81BDE8F081F0B504460D4616461F46D2
:103830003B46324629462046FFF7CCFF208940F41C
:1038400080402081F0BD0185828270470A460021B8
:1038500001884FF68F731940114301807047F0B50E
:103860000C4615461E460021002200230189028BCA
:10387000038C4FF6F877394021434FF6FC473A4026
:1038800040F201173A434FF6DD773B404FF6FF77A2
:1038900007EA06172F433B43018102830384F0BDEF
:1038A0000A460021018B4FF68F73194011430183A3
:1038B00070470A460021018B48F6FF7319404FF606
:1038C000FF7303EA02231943018370470A4600216C
:1038D000818B4FF68F7319401143818370470A46DD
:1038E0000021818B48F6FF7319404FF6FF7303EAFE
:1038F000022319438183704721B1028842F080027C
:10390000028004E002884FF67F731A4002807047FD
:1039100021B1828842F00402828004E082884FF65E
:10392000FB731A408280704721B1828842F00802FE
:10393000828004E082884FF6F7731A4082807047D5
:1039400021B1828842F00102828004E082884FF631
:10395000FE731A40828070470A460021018B4FF6A1
:10396000F77319401143018370470A460021018B08
:103970004FF2FF7319404FF6FF7303EA0223194316
:10398000018370470A460021818B4FF6F773194077
:103990001143818370470A460021818B4FF2FF73E8
:1039A00019404FF6FF7303EA0223194381837047DE
:1039B0000A460021018B4FF6FB7319401143018326
:1039C00070470A460021018B4FF6FF3319404FF62E
:1039D000FF7303EA02231943018370470A4600215B
:1039E000818B4FF6FB7319401143818370470A4660
:1039F0000021818B4FF6FF3319404FF6FF7303EA26
:103A000002231943818370470A460021018B4FF638
:103A10007F7319401143018370470A460021018BCF
:103A2000C1F30E014FF6FF7303EA0223194301832A
:103A300070470A460021818B4FF67F73194011436E
:103A4000818370470A460021818BC1F30E014FF636
:103A5000FF7303EA02231943818370470A4600215A
:103A6000018C4FF6FD7319401143018470470A46DB
:103A70000021018C4FF6F773194011430184704700
:103A80000A460021018C4FF6DF7319404FF6FF7391
:103A900003EA02131943018470470A460021018C8E
:103AA0004FF67F7319404FF6FF7303EA0213194371
:103AB000018470470A460021018C4FF6FF531940DC
:103AC0004FF6FF7303EA02231943018470470A4645
:103AD0000021018C4FF2FF7319404FF6FF7303EA88
:103AE00002231943018470470A460021018C4DF6D8
:103AF000FF7319404FF6FF7303EA02331943018441
:103B0000704730B5002301248C40A3B2048C9C4341
:103B10000484048C02FA01F5ADB22C43048430BD58
:103B200030B5002304248C40A3B2048C9C4304844D
:103B3000048C02FA01F5ADB22C43048430BD70B59B
:103B40000346002000241846183001258D40ACB2F1
:103B50001D8CA5431D8409B1082909D100EB610022
:103B6000056825F0700505600568154305600EE0E1
:103B70000D1FC5F34E052844056825F4E045056092
:103B800005684FF6FF7606EA02263543056070BDEC
:103B900021B1028842F00202028004E002884FF65E
:103BA000FD731A400280704721B1028842F004027E
:103BB000028004E002884FF6FB731A4002807047CF
:103BC00021B1828842F08002828004E082884FF630
:103BD0007F731A408280704702884FF6F7731A404D
:103BE000028002880A430280704782884FF68F73F2
:103BF0001A40828082880A438280704702894FF689
:103C0000F8731A40028102890A43028170470289CF
:103C10004FF67F731A40028102890A43028170477E
:103C2000818470478185704781867047018770471E
:103C300081877047A0F84010704702884FF6FF4315
:103C40001A40028002880A43028070470146888E2B
:103C500070470146088F70470146888F70470146BC
:103C6000B1F8400070470146888C70470146088DC6
:103C7000704702460020138A0B400BB1012000E080
:103C800000207047CA430282704730B502460020C8
:103C900000230024158A05EA0103958905EA010439
:103CA00013B10CB1012000E0002030BDCA430282F4
:103CB0007047000010B50446FA48844208D101213B
:103CC0004015FEF79BFE00216015FEF797FE17E0FA
:103CD000F548844208D101210015FEF78FFE00212E
:103CE0002015FEF78BFE0BE0F048844208D101213D
:103CF000C803FEF783FE00214FF40040FEF77EFE6E
:103D000010BD30B50246002000235068E84C20402A
:103D10000D790C6844EA0524204350609068E54C16
:103D20002040D1E902542C434D7944EA4504204314
:103D30009060D06A20F470000C7C641EE4B22343CF
:103D400040EA0350D06230BD002101600171417131
:103D50008160C16001210174704721B1826842F025
:103D60000102826003E0826822F0010282607047F3
:103D700021B1826842F48072826003E0826822F49A
:103D800080728260704710B50023CBB21AB14468CC
:103D90001C43446002E044689C43446010BD816859
:103DA00041F0080181607047014600208A6802F0F6
:103DB00008020AB1012000E000207047816841F04C
:103DC000040181607047014600208A6802F0040205
:103DD0000AB1012000E00020704721B1826842F45E
:103DE000A002826003E0826822F4A0028260704731
:103DF000014600208A6802F480020AB1012000E036
:103E00000020704710B50A4600210023416821F4C4
:103E10006041531E41EA4331416010BD21B1426807
:103E200042F40062426003E0426822F400624260B1
:103E30007047F0B504460D4600200021092D11DD24
:103E4000E068A5F10A0606EB4607072606FA07F121
:103E50008843A5F10A0606EB460603FA06F1084375
:103E6000E0600CE0206905EB4507072606FA07F13C
:103E7000884305EB450603FA06F108432061072A4B
:103E80000FDA606B561E06EB86071F2606FA07F14F
:103E90008843561E06EB860605FA06F10843606362
:103EA00022E00D2A0FDA206BD61F06EB86071F26AD
:103EB00006FA07F18843D61F06EB860605FA06F1D7
:103EC0000843206310E0E06AA2F10D0606EB8607C6
:103ED0001F2606FA07F18843A2F10D0606EB8606B7
:103EE00005FA06F10843E062F0BD21B1826842F4B0
:103EF0008012826003E0826822F480128260704740
:103F00000146C86C80B2704766484C300068704704
:103F100021B1426842F48062426003E0426822F4C8
:103F200080624260704721B1426842F48052426030
:103F300003E0426822F48052426070470A46002142
:103F4000816821F4E04111438160704721B18268AA
:103F500042F40042826003E0826822F40042826000
:103F6000704721B1826842F40212826003E08268E5
:103F700022F4021282607047014600208A6802F42F
:103F800000120AB1012000E000207047F0B504469D
:103F90001546002000220026092911DDE068A1F164
:103FA0000A0707EB470C072707FA0CF29043A1F129
:103FB0000A0707EB470703FA07F21043E0600CE03B
:103FC000206901EB410C072707FA0CF2904301EB43
:103FD000410703FA07F210432061A06BC0F30156BA
:103FE000EF1C06F1010CA7EB0C0707EB870C1F2752
:103FF00007FA0CF29043EF1C06F1010CA7EB0C073B
:1040000007EB870701FA07F21043A063F0BD10B574
:104010000A4600210023816B21F44011531E41EA1E
:104020000351816310BD08B5002300930090009BED
:104030000B440093009B1A6008BD08B5024600209F
:104040000090009201F12800009B18440090009815
:10405000006880B208BD0A4600214168164B19402D
:104060001143416070474162826270470A460021F5
:10407000416821F01F0111434160704740B1094977
:104080000831096841F40001064A0832116007E06E
:1040900004490831096821F40001024A083211601C
:1040A000704700000024014000280140003C01400E
:1040B000FFFEF0FFFDF7F1FFFFFD3FFF024600208E
:1040C00013680B400BB1012000E000207047CA4389
:1040D0000260704770B502460020002300240B12D6
:1040E0005568CEB205EA060415681D4015B10CB13D
:1040F000012000E0002070BD00220A12D3430360BB
:104100007047000001684FF6FE7211400160002107
:10411000016041608160C1608D49884208D18C494D
:104120000839496841F00F01894A083A51608AE02C
:1041300087491431884208D185490839496841F0D6
:10414000F001834A083A51607DE081492831884274
:1041500008D17F490839496841F470617C4A083ABE
:10416000516070E07A493C31884208D17849083979
:10417000496841F47041764A083A516063E07449F5
:104180005031884208D172490839496841F4702198
:104190006F4A083A516056E06D496431884208D14F
:1041A0006B490839496841F47001694A083A51601D
:1041B00049E067497831884208D16549083949683A
:1041C00041F07061624A083A51603CE061498842BE
:1041D00006D1011F096841F00F01021F116032E092
:1041E0005C491431884208D15A49091F096841F0D5
:1041F000F001584A121F116025E0564928318842C3
:1042000008D15449091F096841F47061514A121FCD
:10421000116018E04F493C31884208D14D49091FCF
:10422000096841F470414B4A121F11600BE0494983
:104230005031884207D14749091F096841F470216C
:10424000444A121F1160704710B50022026847F6F9
:10425000F0739A430C6A8B6823430C6923434C69BF
:1042600023438C692343CC6923434C6A23438C6AE0
:1042700023431A430260CB6843600B6883604B683A
:10428000C36010BD0021016041608160C1600161B7
:1042900041618161C161016241628162704721B106
:1042A000026842F00102026004E002684FF6FE7309
:1042B0001A40026070471AB103680B43036002E0C2
:1042C00003688B430360704741607047014648684C
:1042D00080B2704701460020002201F080531BB1DC
:1042E0001C4B083B1A6802E0194B083B1A6802EAAB
:1042F00001030BB1012000E00020704700F0805165
:1043000019B11449091F086002E0114908394860D1
:10431000704701460020002201F080531BB10D4B75
:10432000083B1A6802E00A4B083B1A6802EA0103DC
:104330000BB1012000E00020704700F0805119B15E
:104340000449091F086002E00149083948607047C4
:10435000080002400804024001460020FE4A10689E
:1043600000F03800084310607047FB49096821F0ED
:104370000801F94A1160114609680143116070474C
:10438000F549096821F01001F34A116011460968E6
:10439000014311607047F148EF494860F0484860B8
:1043A0007047EE48EC494860ED4848607047EA487D
:1043B000006940F08000E84908617047E6480069FC
:1043C00040F08000E449086170470420E249C96870
:1043D00001F0010109B101200EE0DF49C96801F0D7
:1043E000040109B1022007E0DB49C96801F01001AE
:1043F00009B1032000E00420704700B50246042301
:10440000FFF7E3FF034603E0FFF7DFFF0346521E1B
:10441000012B01D1002AF7D102B90523184600BDAE
:1044200030B5044604254FF43020FFF7E6FF05467B
:10443000042D17D1C848006940F00200C649086140
:1044400008464461006940F0400008614FF43020A4
:10445000FFF7D3FF0546C048006941F6FD710840EB
:10446000BD490861284630BD10B504244FF4302002
:10447000FFF7C3FF0446042C16D1B748006940F08B
:104480000400B54908610846006940F04000086131
:104490004FF43020FFF7B1FF0446AF48006941F602
:1044A000FB710840AC490861204610BD00B50246CA
:1044B0000423FFF78AFF034603E0FFF786FF034666
:1044C000521E012B01D1002AF7D102B9052318464B
:1044D00000BD10B504244FF43020FFF7E7FF044679
:1044E000042C16D19C48006940F004009A490861E8
:1044F0000846006940F0400008614FF43020FFF7A3
:10450000D5FF04469448006941F6FB710840924982
:104510000861204610BD00208F49C96901F00201E1
:1045200009B1012000E00020704730B5A525042422
:10453000FFF7F1FF00B100254FF43020FFF75DFFDA
:104540000446042C3AD185488349886084488860B1
:104550000846006940F0200008610846006940F004
:10456000400008614FF43020FFF747FF0446042C59
:104570001BD17948006941F6DF710840764908612E
:104580000846006940F01000086176480580E002A6
:10459000FFF733FF0446052C10D06F48006941F641
:1045A000EF7108406C49086108E0052C06D06A48A4
:1045B000006941F6EF71084067490861204630BD47
:1045C00078B506460C46042500200090E802FFF767
:1045D00014FF0546042D24D15F48006940F0010016
:1045E0005D4908613480E802FFF707FF0546042DA6
:1045F00010D1B01C0090200C00990880E802FFF751
:10460000FCFE05465448006941F6FE7108405249D7
:10461000086106E05048006941F6FE7108404E49C5
:104620000861284678BD70B504460D460426F002A0
:10463000FFF7E3FE0646042E11D14748006940F01B
:104640000100454908612580F002FFF7D6FE0646C5
:104650004148006941F6FE7108403F490861304613
:1046600070BD70B505460E460424E002FFF7C5FE96
:104670000446042C17D13948374988603848886087
:104680000846006940F0100008612E80E002FFF744
:10469000B4FE0446052C06D02F48006941F6EF71A0
:1046A00008402D490861204670BD2DE9F0430446BD
:1046B0004FF6FF763746B046B1460425E443E6B2EE
:1046C000C4F30727C4F307484FEA1469E802FFF769
:1046D00094FE0546042D49D120481F498860204892
:1046E00088600846006940F010000861FF2E06D07F
:1046F0001C4808300680E802FFF77FFE0546042DBF
:1047000008D1FF2F06D017480A300780E802FFF7CC
:1047100074FE0546042D0AD1B8F1FF0F07D01148E9
:104720000C30A0F80080E802FFF767FE0546042D74
:104730000AD1B9F1FF0F07D00A480E30A0F8009057
:10474000E802FFF75AFE0546052D0FD00248006922
:1047500041F6EF71084007E0002002402301674561
:10476000AB89EFCD00F8FF1F664908612846BDE818
:10477000F08330B5054604244FF43020FFF73DFEAA
:104780000446042C41D160485E4988605F488860D7
:104790000846006940F0200008610846006940F0C2
:1047A000400008614FF43020FFF727FE0446042C38
:1047B00022D15448006941F6DF710840514908612F
:1047C0000846006940F0100008611DB10020504902
:1047D000088002E0A5204E4908804FF43020FFF702
:1047E0000CFE0446052C10D04648006941F6EF71D6
:1047F00008404449086108E0052C06D0414800699A
:1048000041F6DF7108403F490861204630BDF0B5F0
:1048100005460E46174604243B483A4988603B4803
:104820008860E002FFF7E9FD0446042C19D1354801
:10483000006940F010003349086147F0F800304348
:1048400028433349891C0880E002FFF7D6FD04465F
:10485000052C06D02B48006941F6EF710840294924
:1048600008612046F0BD2748C06980087047254888
:10487000006A704700202349096801F0200109B14E
:10488000012000E00020704729B11E4A126902434E
:104890001C4B1A6104E01B4A12698243194B1A61CE
:1048A000704701460020012908D1164AD26902F05A
:1048B00001020AB1012008E0002006E0114AD26896
:1048C0000A400AB1012000E0002070470D49C8608D
:1048D000704704200B49C96801F0010109B10120AA
:1048E0000EE00849C96801F0040109B1022007E09F
:1048F0000449C96801F0100109B1032000E0042057
:10490000704700000020024023016745AB89EFCDCE
:1049100000F8FF1F704700000FB41CB5074B06AA34
:104920007B4469460090059800F0FFFB0020694633
:1049300000F00EFC1CBC5DF814FB00002D0800000C
:104940002DE9F0410646002410687529314616A568
:1049500010D0AFF30080002802DA404213A507E030
:1049600031688A0701D512A502E0490704D511A5CF
:10497000012401E0AFF3008000210A2206F12407A0
:1049800009E0B0FBF2FCB0FBF2F302FB1C0030309C
:1049900078541846491C0028F3D123462A4630464D
:1049A000BDE8F04100F056B9000000002D00000005
:1049B0002B000000200000002DE9F0474FF0000A16
:1049C00089460446C0F820A02046E16888470028B0
:1049D00076D0252806D0D4E901219047206A401CD2
:1049E0002062F1E7E168204600258847C4F81CA052
:1049F00006460027C4F818A02A2E09D0304601F038
:104A00000BFC38B304EB8708303EC8F8186019E097
:104A100059F8041B204604EB87029161E16888473E
:104A2000012F064618D1E069002820DA25F020057C
:104A30001DE0D8F8180000EB800006EB400030388D
:104A4000C8F818002046E1688847064601F0E4FBF4
:104A50000028EED1012F0AD02E2E08D12046E16881
:104A600088477F1C0646022F45F02005C4DBA0695D
:104A7000002803DA404245F00105A061E80701D0B3
:104A800025F01005B6B1A6F14100192802D820364C
:104A900045F400654A463146204625604D46FBF701
:104AA000A1FB58B1012806D0ED1D25F0070000F14B
:104AB000080989E704E005F1040985E730468AE73B
:104AC000206ABDE8F08730B505460B462A4613F844
:104AD000014B12F8010B08B1A042F8D01CB100281C
:104AE00002D06D1CF1E7284630BD10B5431C02E032
:104AF00010F8011B71B18107FAD14FF0013202C8E1
:104B00008C1A8C4314EAC211F9D0C01A0A0603D0D9
:104B1000C01E10BDC01A10BD0A0401D0801E10BDF9
:104B20000902FCD0401E10BD421E12F8013F002BAE
:104B3000FBD111F8013B002B02F8013BF9D1704782
:104B400010B5203AC0F00B80B1E81850203AA0E828
:104B50001850B1E81850A0E81850BFF4F5AF5FEA5C
:104B6000027C24BFB1E81850A0E8185044BF18C90F
:104B700018C0BDE810405FEA827C24BF51F8043BB6
:104B800040F8043B08BF7047D20728BF31F8023B0A
:104B900048BF11F8012B28BF20F8023B48BF00F89E
:104BA000012B70474FF000020429C0F0128010F072
:104BB000030C00F01B80CCF1040CBCF1020F18BFF9
:104BC00000F8012BA8BF20F8022BA1EB0C0100F08C
:104BD0000DB85FEAC17C24BF00F8012B00F8012B5F
:104BE00048BF00F8012B70474FF0000200B5134694
:104BF00094469646203922BFA0E80C50A0E80C50FD
:104C0000B1F12001BFF4F7AF090728BFA0E80C50AD
:104C100048BF0CC05DF804EB890028BF40F8042BA6
:104C200008BF704748BF20F8022B11F0804F18BF13
:104C300000F8012B7047704770477047704710B5F8
:104C400000F090FA006810BD10B5044600F08AFA32
:104C5000046010BD2DE9F0470D4699469246044682
:104C600000F124080168880604D5E06921F01001EC
:104C7000216000E00120A84201DD471B00E0002781
:104C8000A1697A1902EB0900081AA0612078C00610
:104C900002D42046AFF30080002608E0D4E90121C9
:104CA0001AF806009047206A401C761C20624E4588
:104CB000F4DB2078C0060AD52046AFF3008006E07A
:104CC000D4E9012130209047206A401C2062381E20
:104CD000A7F10107F4DC07E0D4E9012118F8050089
:104CE0009047206A401C2062281EA5F10105F3DCD4
:104CF0002046AFF300802078000602D50220BDE8F0
:104D0000F0870120FBE770472DE9FF4F0C461E4658
:104D10004FF0FF378BB0D2E90001DDF860800A90D8
:104D20008A46C1F30A5505B93D46002108464FF0B1
:104D30000000BAF1000F00F4400005DA00EB80003B
:104D40004FF4400101EA50004FEA9059B9F1010FC8
:104D500000DDB9460A9850EA4A000ED044F61050D9
:104D6000A5F2FF3545432F14B8F1000F1ED0754250
:104D7000291E1EDDC9F100021CE0B8F1010F4FF041
:104D8000000001D0302103E0F24305E02154401C33
:104D9000B042FBDB30460022002121540B99C1F8C0
:104DA0000880C1E900200FB0BDE8F08FBD1B6D1C6D
:104DB000DEE74A4600DA694206A800F05DFA06AB73
:104DC00093E8070003AB83E8070050460A9900F018
:104DD00033FB8DE80700A0F500501F3800900398C2
:104DE000002D09DD42F21F014A46084403A9039041
:104DF000684600F092FD08E0A0F500504A461F38D2
:104E000003A90390684600F09CFD8DE807000004AC
:104E1000000C03D04FF0FF30410800E01046B8F11D
:104E2000000F03D00022009215461EE0751E05D427
:104E300000F09CF9303262556D1EF9D5B34601225F
:104E4000084302D000227F1C04E02078302801D1E2
:104E500000227F1E002A099786D01DE0112D07DA57
:104E600000F084F9303262556D1C50EA0102F5D130
:104E7000084302D00098C8B10EE00021681E05E08A
:104E8000235C625C63542254401E491C8142F7DB60
:104E9000AB46A81B401E0990002004F80B000B989D
:104EA000099AC0F80880C0E9002B7CE711264FF072
:104EB000000859E72DE9F04F88460446D21D22F03C
:104EC000070191B0D1E90001CDE90A0100F06FFEC0
:104ED00002460B98C00F01D02D2007E02068810703
:104EE00001D52B2002E0202101EAC000032A09900D
:104EF00001D0072A05DB03464146204600F07CF935
:104F00000BE12078800601D5E06900E00620B8F1C9
:104F1000650F814606D0B8F1660F18D0B8F1670F5B
:104F200070D131E00020B9F1110F009001DB1123A5
:104F300001E009F101030AAA01A90CA8FFF7E4FEA8
:104F4000DDE90C70002609F10105834647E00120E8
:104F50004B4600904FF000470AAA01A90CA8FFF7A2
:104F6000D3FEDDE90DB00C995D46002610B909F1BC
:104F700001000D18B9EB050003D4C0F1FF3609F1AB
:104F80000105A5EB09002BE0B9F1010F01DA4FF0A3
:104F900001090020B9F1110F0090484601DD1123ED
:104FA00000E003460AAA01A90CA8FFF7ADFEDDE95F
:104FB0000C704D4600268346207800070AD4AB4586
:104FC00000DA5D4601A8012D04DD411911F8011C2C
:104FD000302907D04F4502DA17F1040F04DA012017
:104FE00082460FE06D1EEEE7002F02DCED1B3E4413
:104FF00003E0781CA84200DD7D1CB81B00F1010A0B
:105000004FF000472078000703D4AA4501DB4FF09A
:10501000FF3A0021B7F1004F0DF143088DF843101E
:1050200024D002202B23002F01DA7F422D230A21D6
:10503000021EA0F1010000DC5FB197FBF1FC97FBC1
:10504000F1F201FB1C7C17460CF1300C08F801CD85
:10505000EEE7A8F1010003702188090501D545217B
:1050600000E06521A0F1010800F8011C09980FA9D2
:10507000A1EB0807FF1D00B10120411901EBEA7007
:10508000A1693844081A401EA0612078C00602D4E5
:105090002046AFF30080099828B1D4E90121904758
:1050A000206A401C20622078C00622D52046AFF33B
:1050B00000801EE0002E04DBB34502DD01A8805D08
:1050C00000E03020D4E901219047206A401C206292
:1050D000761CAAF101005FEA000A0AD100F03EF84E
:1050E000C0680168405CD4E901219047206A401CF7
:1050F0002062281EA5F10105DCDC07E0D4E90121CE
:1051000018F8010B9047206A401C2062381EA7F156
:105110000107F3DC2046AFF30080032011B043E623
:1051200001694A1C02610878704700B58FB0CDE96B
:1051300001310021059105497944CDE9031011465B
:105140006846FFF739FC0FB000BD0000E5FFFFFF28
:105150000A6802F8010B0A607047000000487047B7
:10516000241F002000487047041F002030B5B0F114
:105170000A024FEA900E71F100034EEA817EB0EB15
:105180000E0061EB91014FEA101E4EEA017E10EB1A
:105190000E0041EB11114FEA102E4EEA016E10EB9A
:1051A0000E0041EB11214FEA104E4EEA014E10EB7A
:1051B0000E0041EB1141401841F100014FEAD000CF
:1051C00040EA41704FEAD10110EB80054FEA8104BB
:1051D00044EA907444EB01046D1944EB0404521B3F
:1051E000A3414FF0000348BF0A3200D530BD401C38
:1051F00041F1000130BD00002DE9F0411F46044699
:1052000003260168072A01F4006004DB08B116A533
:1052100005E016A503E008B115A500E015A521F0ED
:1052200010002060A069C01EA0610FB1401EA061E7
:105230002046AFF300804FB1D4E9012138469047B2
:10524000206A401C2062C01C206206E0206AFAE747
:10525000D4E9012115F8010B9047761EF8D22046BB
:10526000AFF30080BDE8F0814E414E006E616E00EC
:10527000494E4600696E66002DE9F04781461646A4
:105280008AB0334878440DC88DE80D003048784422
:10529000801C03AC0DC884E80D0041F69B30084427
:1052A000372190FBF1F290FBF1F5A5F1800501FBB0
:1052B00012041B3C02D56442012000E00020DFF80C
:1052C00090A080460027FA44AAF1BE0A0DE0E0074C
:1052D00009D03246684607EB47010AEB810100F02E
:1052E00030FB8DE8070064107F1C002CEFD1184FB5
:1052F0007F44AC3F18E0E80714D007EB04100DF131
:10530000180A90E80E008AE80E00C068F04201D149
:1053100098190890324606A903A800F012FB03ABC7
:1053200083E807006D10641C002DE4D13246694605
:10533000B8F1000F03A802D000F0EFFA01E000F08E
:1053400000FBC9E90001C9F808200AB0BDE8F087F0
:10535000242F000000487047041F00207546FFF707
:10536000F9FFAE4605006946534620F00700854622
:1053700018B020B5FCF78CFFBDE820404FF00006C8
:105380004FF000074FF000084FF0000B21F007012D
:10539000AC46ACE8C009ACE8C009ACE8C009ACE870
:1053A000C0098D46704710B50446AFF30080204613
:1053B000BDE81040FAF733BF4FF0013C50F8042B22
:1053C00051F8043B9A4221D1A2EB0C03934313EA18
:1053D000CC1317D150F8042B51F8043B9A4215D145
:1053E000A2EB0C03934313EACC130BD150F8042B1C
:1053F00051F8043B9A4209D1A2EB0C03934313EA00
:10540000CC13DBD04FF00000704700BFD01A01BAB8
:10541000B1FA81F101F0180122FA01F0CB40C1F19B
:105420002001DBB2C0B2C01A2CFA01F3D11A9143A9
:1054300011EAC311E6D170475FEA400C08BF91F052
:10544000000F4FEA8C234FEAC12243EA51514FEA41
:105450001C5018BF00F5F0404FEA300018BF41F073
:1054600000415FEA6C5C00F02980BCF1FF3F08BF9F
:1054700040F080407047130C06BF12044FF0100C30
:105480004FF0000C130E04BF12020CF1080C130FA6
:1054900004BF12010CF1040C930F04BF92000CF135
:1054A000020CD30F04BF52000CF1010C11464FF057
:1054B0000002A0F11F00A0EB0C00704711F0004F9C
:1054C00008BF704731F000413FF4D5AF0B0C06BF69
:1054D00009044FF0100C4FF0000C0B0E04BF090232
:1054E0000CF1080C0B0F04BF09010CF1040C8B0F1D
:1054F00004BF89000CF1020CCB0F04BF49000CF172
:10550000010CCCF12003A0EB0C0022FA03F302FA09
:105510000CF241EA030100F10100704720F07F4CDA
:1055200080EA030023F07F47ACEB070303F57C53CD
:1055300000F0004003F1FF032DE980494FEA154BCD
:1055400009B44FEA144325EA0B4E24EA03480FF24C
:10555000042606EB132749083E785FEA320203FB74
:105560000667C7F5000707FB06F64FEA54374FEA10
:10557000D64606F1020607FB066CCCF1005C4FEA4A
:105580001C472CEA074C07FB06F40CFB06F504EB62
:1055900015464FEA961634BF00204FF000404FEA00
:1055A000D13706FB07FC4FEA1C4C0CFB0BF7D21B58
:1055B00003FB0CF761EB07010CFB0EF7B0EB0740A8
:1055C00072EB17420CFB08F734BFA2EB0742B2EBB9
:1055D000074261EB17414FEA0C444FEA910706FB83
:1055E00007FC4FEA1C4C0CFB0BF7B0EBC74072EB0F
:1055F000573203FB0CF734BFA2EBC742B2EBC742F2
:1056000061EB57310CFB0EF7B0EBC70072EB577232
:105610000CFB08F734BFA2EBC702B2EBC70261EB89
:105620005771039F4FEA816141EA921104EBCC0468
:105630004FEAD1374FEA826206FB07FC42EA90123A
:105640004FEA80604FEA1C4C0CFB0BF7D21B03FBAC
:105650000CF761EB07010CFB0EF7B0EB074072EBA8
:1056600017420CFB08F734BFA2EB0742B2EB07422C
:1056700061EB17414FEA8C554FEA910704EB9C24EC
:1056800006FB07FC4FEA1C4C0CFB0BF7B0EBC740CA
:1056900072EB573203FB0CF734BFA2EBC742B2EBFD
:1056A000C74261EB57310CFB0EF7B0EBC70072EB52
:1056B00057720CFB08F734BFA2EBC702B2EBC7026C
:1056C00061EB577115EB4C254FEA816141EA92116C
:1056D0004FEA82624FEAD13742EA901206FB07FC9A
:1056E00044F100044FEA80604FEA1C4C0CFB0BF7BE
:1056F000D21B03FB0CF761EB07010CFB0EF7B0EBC1
:10570000074072EB17420CFB08F734BFA2EB0742CD
:10571000B2EB074261EB174115EB1C154FEA8131E3
:1057200041EA92414FEA823242EA90424FEA8030A7
:105730004FEA0C7644F1000448EA03434EEA0B4872
:105740004FF0000EB2EB080C71EB030724BF62466A
:1057500039464EEB0E0E4FF0000B001852414941F6
:105760004BEB0B0BB2EB080C71EB03077BF1000B5F
:1057700024BF624639464EEB0E0E4FF0000B001868
:10578000524149414BEB0B0BB2EB080C71EB030799
:105790007BF1000B24BF624639464EEB0E0E51EAF8
:1057A000020718BF46F0010616EB0E7655F100020F
:1057B00054F1000103D5BDE88901BDE80088BDE8CA
:1057C0008901BDE80048B619524141EB0101A3F13E
:1057D0000103704780807F7E7D7C7B7A7978777645
:1057E00076757473727171706F6E6E6D6C6C6B6ABE
:1057F0006A6968686766666564646363626161605C
:10580000605F5F5E5E5D5D5C5C5B5B5A5A595958D8
:105810005857575656555555545453535252525142
:10582000515050504F4F4F4E4E4D4D4D4C4C4C4B98
:105830004B4B4A4A4A4949494848484747474746DF
:10584000464645454544444444434343434242421B
:1058500042414141002B26D4770021D01CB54FEAAC
:10586000370703B44FF010004FF010014FF0000065
:105870000FBCBDE810400BF1010BBBF1010F08BFDD
:105880005FEA170722BF12F1010211F101014FF087
:10589000004143F1000300F0004043EA000070477C
:1058A000F9D35708DAE746EA064613F1400F4FEA04
:1058B00016461FDD13F1200FDFBF16430A460021F5
:1058C00020335B42C8D0C3F1200746EA064602FAFD
:1058D00007F74FEA164646EA0706C3F1200722FA01
:1058E00003F201FA07F721FA03F14FF0000342EA4D
:1058F0000702B1E746EA020646EA06464FEA1646BE
:1059000046EA0106BCBF46EA0646360C4FF00003E5
:105910004FF000024FF000019EE72DE9C04893468A
:1059200030B491E8380007C831EA400C48BF34EA87
:10593000430C03D5FFF7F2FDFFF78CFFF0BCBDE889
:1059400000882DE9C048934630B491E8380007C874
:1059500010F0804F08BF13F0804F03D100F005F81E
:10596000FFF778FFF0BCBDE8008820F07F4780EAB1
:10597000030023F07F4C07EB0C03A3F57C5300F0EE
:105980000040A3F1FE0392F0000F00F0B38095F009
:10599000000F00F077802DE901494FEA11404FEAEE
:1059A000144621EA004800FB06FC24EA064708FBEF
:1059B00006F607FB08F800FB07F718EB06484CEB68
:1059C000164C4FEA124B18EB07484FEA15464CEBC2
:1059D000174022EA0B4E0BFB06FC25EA06470EFB9E
:1059E00006F607FB0EFE0BFB07F71EEB064E4CEB15
:1059F000164C4FF000061EEB074E4CEB174B18EB06
:105A00000B0840F1000018EB0E0B58EB000840F1BA
:105A100000008F1A4FF000013CBFC943661B14BF42
:105A2000B5EB040C00213CBFC943F61B4FEA1744F9
:105A30004EEA8E0E27EA04454FEA1C4704FB076234
:105A40002CEA074C05FB07F70CFB05F604FB0CFCE6
:105A500016EB074642EB174216EB0C4642EB1C4294
:105A60001BEB060658EB0202414146EA9E0601D5B1
:105A7000BDE80189B619524141EB0101A3F10103CF
:105A8000BDE801894FEA14454FEA114724EA05466B
:105A900021EA074C05FB07F406FB07F70CFB06F1B0
:105AA00005FB0CFC11EB074144EB17444FEA12478E
:105AB00011EB0C4144EB1C4422EA074C05FB07F2B6
:105AC00006FB07F70CFB06F605FB0CFC16EB07467E
:105AD00042EB174216EB0C4642EB1C456A1854F198
